{
    "contractName": "CompanyContract",
    "abi": [
        {
            "inputs": [
                {
                    "internalType": "address",
                    "name": "tokenContract",
                    "type": "address"
                },
                {
                    "internalType": "uint256",
                    "name": "initialAmount",
                    "type": "uint256"
                }
            ],
            "stateMutability": "nonpayable",
            "type": "constructor"
        },
        {
            "anonymous": false,
            "inputs": [
                {
                    "indexed": true,
                    "internalType": "uint256",
                    "name": "transactId",
                    "type": "uint256"
                },
                {
                    "indexed": true,
                    "internalType": "string",
                    "name": "rId",
                    "type": "string"
                },
                {
                    "indexed": true,
                    "internalType": "address",
                    "name": "userAddress",
                    "type": "address"
                },
                {
                    "indexed": false,
                    "internalType": "uint256",
                    "name": "amount",
                    "type": "uint256"
                }
            ],
            "name": "RewardTransaction",
            "type": "event"
        },
        {
            "anonymous": false,
            "inputs": [
                {
                    "indexed": true,
                    "internalType": "uint256",
                    "name": "transactId",
                    "type": "uint256"
                },
                {
                    "indexed": true,
                    "internalType": "string",
                    "name": "tId",
                    "type": "string"
                },
                {
                    "indexed": true,
                    "internalType": "address",
                    "name": "userAddress",
                    "type": "address"
                },
                {
                    "indexed": false,
                    "internalType": "uint256",
                    "name": "amount",
                    "type": "uint256"
                }
            ],
            "name": "TaskTransaction",
            "type": "event"
        },
        {
            "anonymous": false,
            "inputs": [
                {
                    "indexed": true,
                    "internalType": "uint256",
                    "name": "transactId",
                    "type": "uint256"
                },
                {
                    "indexed": false,
                    "internalType": "address",
                    "name": "sender",
                    "type": "address"
                },
                {
                    "indexed": false,
                    "internalType": "address",
                    "name": "receiver",
                    "type": "address"
                },
                {
                    "indexed": false,
                    "internalType": "uint256",
                    "name": "amount",
                    "type": "uint256"
                }
            ],
            "name": "Transaction",
            "type": "event"
        },
        {
            "inputs": [
                {
                    "internalType": "address",
                    "name": "userAddress",
                    "type": "address"
                },
                {
                    "internalType": "string",
                    "name": "tId",
                    "type": "string"
                }
            ],
            "name": "completeTask",
            "outputs": [],
            "stateMutability": "nonpayable",
            "type": "function"
        },
        {
            "inputs": [
                {
                    "internalType": "string",
                    "name": "rId",
                    "type": "string"
                },
                {
                    "internalType": "uint256",
                    "name": "amount",
                    "type": "uint256"
                }
            ],
            "name": "createReward",
            "outputs": [],
            "stateMutability": "nonpayable",
            "type": "function"
        },
        {
            "inputs": [
                {
                    "internalType": "string",
                    "name": "tId",
                    "type": "string"
                },
                {
                    "internalType": "uint256",
                    "name": "amount",
                    "type": "uint256"
                }
            ],
            "name": "createTask",
            "outputs": [],
            "stateMutability": "nonpayable",
            "type": "function"
        },
        {
            "inputs": [
                {
                    "internalType": "address",
                    "name": "userAddress",
                    "type": "address"
                }
            ],
            "name": "createUser",
            "outputs": [],
            "stateMutability": "nonpayable",
            "type": "function"
        },
        {
            "inputs": [
                {
                    "internalType": "address",
                    "name": "userAddress",
                    "type": "address"
                },
                {
                    "internalType": "uint256",
                    "name": "amount",
                    "type": "uint256"
                }
            ],
            "name": "fundUser",
            "outputs": [],
            "stateMutability": "nonpayable",
            "type": "function"
        },
        {
            "inputs": [
                {
                    "internalType": "address",
                    "name": "userAddress",
                    "type": "address"
                },
                {
                    "internalType": "string",
                    "name": "rId",
                    "type": "string"
                }
            ],
            "name": "redeemReward",
            "outputs": [],
            "stateMutability": "nonpayable",
            "type": "function"
        },
        {
            "inputs": [
                {
                    "internalType": "string",
                    "name": "rId",
                    "type": "string"
                }
            ],
            "name": "removeReward",
            "outputs": [],
            "stateMutability": "nonpayable",
            "type": "function"
        },
        {
            "inputs": [
                {
                    "internalType": "string",
                    "name": "tId",
                    "type": "string"
                }
            ],
            "name": "removeTask",
            "outputs": [],
            "stateMutability": "nonpayable",
            "type": "function"
        },
        {
            "inputs": [
                {
                    "internalType": "address",
                    "name": "userAddress",
                    "type": "address"
                }
            ],
            "name": "removeUser",
            "outputs": [],
            "stateMutability": "nonpayable",
            "type": "function"
        },
        {
            "inputs": [
                {
                    "internalType": "string",
                    "name": "",
                    "type": "string"
                }
            ],
            "name": "rewards",
            "outputs": [
                {
                    "internalType": "uint256",
                    "name": "amount",
                    "type": "uint256"
                }
            ],
            "stateMutability": "view",
            "type": "function"
        },
        {
            "inputs": [
                {
                    "internalType": "address",
                    "name": "userAddress",
                    "type": "address"
                },
                {
                    "internalType": "uint256",
                    "name": "amount",
                    "type": "uint256"
                }
            ],
            "name": "stakeTokens",
            "outputs": [],
            "stateMutability": "nonpayable",
            "type": "function"
        },
        {
            "inputs": [
                {
                    "internalType": "string",
                    "name": "",
                    "type": "string"
                }
            ],
            "name": "tasks",
            "outputs": [
                {
                    "internalType": "uint256",
                    "name": "amount",
                    "type": "uint256"
                }
            ],
            "stateMutability": "view",
            "type": "function"
        },
        {
            "inputs": [
                {
                    "internalType": "address",
                    "name": "userAddress",
                    "type": "address"
                }
            ],
            "name": "unstakeTokens",
            "outputs": [],
            "stateMutability": "nonpayable",
            "type": "function"
        }
    ],
    "bytecode": "60806040525f600855348015610013575f80fd5b50604051611681380380611681833981016040819052610032916100b1565b5f80546001600160a01b03199081163317909155600180546001600160a01b0385169216821790556040516340c10f1960e01b8152306004820152602481018390526340c10f19906044015f604051808303815f87803b158015610094575f80fd5b505af11580156100a6573d5f803e3d5ffd5b5050505050506100e8565b5f80604083850312156100c2575f80fd5b82516001600160a01b03811681146100d8575f80fd5b6020939093015192949293505050565b61158c806100f55f395ff3fe608060405234801561000f575f80fd5b50600436106100cb575f3560e01c806379a83f5a11610088578063a2f8af3811610063578063a2f8af38146101a6578063cdd87618146101d1578063d58b4c45146101e4578063dbb3c335146101f7575f80fd5b806379a83f5a1461016d57806396489045146101805780639857518814610193575f80fd5b806304fe2b34146100cf5780630da8073d146100e457806310437844146100f75780632d1ad8b81461010a5780634e23a1441461011d57806358709cf214610130575b5f80fd5b6100e26100dd366004611292565b61020a565b005b6100e26100f23660046112d4565b6102f6565b6100e2610105366004611292565b6103ba565b6100e2610118366004611329565b610487565b6100e261012b366004611349565b61067e565b61015b61013e3660046112d4565b805160208183018101805160038252928201919093012091525481565b60405190815260200160405180910390f35b6100e261017b366004611349565b610765565b6100e261018e3660046112d4565b610900565b6100e26101a1366004611329565b6109af565b61015b6101b43660046112d4565b805160208183018101805160048252928201919093012091525481565b6100e26101df366004611329565b610b16565b6100e26101f2366004611371565b610be0565b6100e2610205366004611371565b610edd565b5f546001600160a01b0316331461023c5760405162461bcd60e51b8152600401610233906113bc565b60405180910390fd5b80805f0361025c5760405162461bcd60e51b815260040161023390611402565b60038360405161026c919061142d565b90815260405190819003602001902054156102bf5760405162461bcd60e51b81526020600482015260136024820152725461736b20616c72656164792065786973747360681b6044820152606401610233565b6040518060200160405280838152506003846040516102de919061142d565b90815260405190819003602001902090519055505050565b5f546001600160a01b0316331461031f5760405162461bcd60e51b8152600401610233906113bc565b80600381604051610330919061142d565b908152604051908190036020019020545f036103845760405162461bcd60e51b815260206004820152601360248201527215185cdac8191bd95cc81b9bdd08195e1a5cdd606a1b6044820152606401610233565b60405180602001604052805f8152506003836040516103a3919061142d565b908152604051908190036020019020905190555050565b5f546001600160a01b031633146103e35760405162461bcd60e51b8152600401610233906113bc565b80805f036104035760405162461bcd60e51b815260040161023390611402565b600483604051610413919061142d565b90815260405190819003602001902054156104685760405162461bcd60e51b815260206004820152601560248201527452657761726420616c72656164792065786973747360581b6044820152606401610233565b6040518060200160405280838152506004846040516102de919061142d565b5f546001600160a01b031633146104b05760405162461bcd60e51b8152600401610233906113bc565b6001600160a01b0381165f90815260026020526040902054819060ff166104e95760405162461bcd60e51b815260040161023390611459565b6001600160a01b0382165f90815260056020526040812054900361054f5760405162461bcd60e51b815260206004820152601960248201527f5573657220686173206e6f207374616b656420746f6b656e73000000000000006044820152606401610233565b6001600160a01b0382165f9081526005602090815260408083208151808301909252805482526001015491810182905291906201518090610590904261149a565b61059a91906114b3565b82516105a8906064906114b3565b6105b291906114d2565b82516105be91906114e9565b60015460405163a9059cbb60e01b81526001600160a01b0387811660048301526024820184905292935091169063a9059cbb906044016020604051808303815f875af1158015610610573d5f803e3d5ffd5b505050506040513d601f19601f8201168201806040525081019061063491906114fc565b5061064030858361119b565b50506040805180820182525f80825260208083018281526001600160a01b039096168252600590529190912090518155915160019092019190915550565b5f546001600160a01b031633146106a75760405162461bcd60e51b8152600401610233906113bc565b6001600160a01b0382165f90815260026020526040902054829060ff166106e05760405162461bcd60e51b815260040161023390611459565b60015460405163a9059cbb60e01b81526001600160a01b038581166004830152602482018590529091169063a9059cbb906044016020604051808303815f875af1158015610730573d5f803e3d5ffd5b505050506040513d601f19601f8201168201806040525081019061075491906114fc565b5061076030848461119b565b505050565b5f546001600160a01b0316331461078e5760405162461bcd60e51b8152600401610233906113bc565b6001600160a01b0382165f90815260026020526040902054829060ff166107c75760405162461bcd60e51b815260040161023390611459565b81805f036107e75760405162461bcd60e51b815260040161023390611402565b6001600160a01b0384165f908152600560205260409020541561084c5760405162461bcd60e51b815260206004820152601e60248201527f557365722068617320616c7265616479207374616b656420746f6b656e7300006044820152606401610233565b6040805180820182528481524260208083019182526001600160a01b038089165f908152600590925290849020925183559051600192830155905491516323b872dd60e01b81529116906323b872dd906108ae9087903090889060040161151b565b6020604051808303815f875af11580156108ca573d5f803e3d5ffd5b505050506040513d601f19601f820116820180604052508101906108ee91906114fc565b506108fa84308561119b565b50505050565b5f546001600160a01b031633146109295760405162461bcd60e51b8152600401610233906113bc565b8060048160405161093a919061142d565b908152604051908190036020019020545f036109905760405162461bcd60e51b815260206004820152601560248201527414995dd85c9908191bd95cc81b9bdd08195e1a5cdd605a1b6044820152606401610233565b60405180602001604052805f8152506004836040516103a3919061142d565b5f546001600160a01b031633146109d85760405162461bcd60e51b8152600401610233906113bc565b6001600160a01b0381165f90815260026020526040902054819060ff16610a115760405162461bcd60e51b815260040161023390611459565b6001600160a01b038281165f81815260026020526040808220805460ff1916905560015490516370a0823160e01b81526004810193909352909216906370a0823190602401602060405180830381865afa158015610a71573d5f803e3d5ffd5b505050506040513d601f19601f82011682018060405250810190610a95919061153f565b6001546040516323b872dd60e01b81529192506001600160a01b0316906323b872dd90610aca9086903090869060040161151b565b6020604051808303815f875af1158015610ae6573d5f803e3d5ffd5b505050506040513d601f19601f82011682018060405250810190610b0a91906114fc565b5061076083308361119b565b5f546001600160a01b03163314610b3f5760405162461bcd60e51b8152600401610233906113bc565b6001600160a01b038181165f8181526002602052604090819020805460ff1916600190811790915554905163a9059cbb60e01b81526004810192909252600a60248301529091169063a9059cbb906044016020604051808303815f875af1158015610bac573d5f803e3d5ffd5b505050506040513d601f19601f82011682018060405250810190610bd091906114fc565b50610bdd3082600a61119b565b50565b5f546001600160a01b03163314610c095760405162461bcd60e51b8152600401610233906113bc565b80600381604051610c1a919061142d565b908152604051908190036020019020545f03610c6e5760405162461bcd60e51b815260206004820152601360248201527215185cdac8191bd95cc81b9bdd08195e1a5cdd606a1b6044820152606401610233565b6001600160a01b0383165f90815260026020526040902054839060ff16610ca75760405162461bcd60e51b815260040161023390611459565b6001600160a01b0384165f90815260066020526040908190209051610ccd90859061142d565b9081526040519081900360200190205460ff1615610d2d5760405162461bcd60e51b815260206004820152601760248201527f416c726561647920636f6d706c65746564206576656e740000000000000000006044820152606401610233565b6001546040516001600160a01b039091169063a9059cbb908690600390610d5590889061142d565b908152604051908190036020018120546001600160e01b031960e085901b168252610d9792916004016001600160a01b03929092168252602082015260400190565b6020604051808303815f875af1158015610db3573d5f803e3d5ffd5b505050506040513d601f19601f82011682018060405250810190610dd791906114fc565b506001600160a01b0384165f9081526006602052604090819020905160019190610e0290869061142d565b90815260200160405180910390205f6101000a81548160ff021916908315150217905550610e503085600386604051610e3b919061142d565b9081526040519081900360200190205461119b565b836001600160a01b031683604051610e68919061142d565b60405180910390206008547f766a65749de4071c2067916190911b9db0cf81f8f4ce39cdeab60e429a0573a9600387604051610ea4919061142d565b908152604051602091819003820181205481520160405180910390a4600160085f828254610ed291906114e9565b909155505050505050565b5f546001600160a01b03163314610f065760405162461bcd60e51b8152600401610233906113bc565b6001600160a01b0382165f90815260026020526040902054829060ff16610f3f5760405162461bcd60e51b815260040161023390611459565b81600481604051610f50919061142d565b908152604051908190036020019020545f03610fa65760405162461bcd60e51b815260206004820152601560248201527414995dd85c9908191bd95cc81b9bdd08195e1a5cdd605a1b6044820152606401610233565b6001600160a01b0384165f90815260076020526040908190209051610fcc90859061142d565b9081526040519081900360200190205460ff161561102c5760405162461bcd60e51b815260206004820152601760248201527f416c72656164792072656465656d6564207265776172640000000000000000006044820152606401610233565b5f60048460405161103d919061142d565b90815260408051918290036020908101832090830182525480835260015491516323b872dd60e01b81529293506001600160a01b03909116916323b872dd9161108c918991309160040161151b565b6020604051808303815f875af11580156110a8573d5f803e3d5ffd5b505050506040513d601f19601f820116820180604052508101906110cc91906114fc565b506001600160a01b0385165f90815260076020526040908190209051600191906110f790879061142d565b908152604051908190036020019020805491151560ff199092169190911790558051611126908690309061119b565b846001600160a01b03168460405161113e919061142d565b6040519081900381206008548451835290917f1b19d0f75e75a369cad7ba25b08c2a4fd26d4ef8667f56347c5ef128d71cecb59060200160405180910390a4600160085f82825461118f91906114e9565b90915550505050505050565b6008547f63a29b125d68907b7c9a82b8e1c87c77e7bec8afb90cae5d5d2dfadc1ab7d6288484846040516111d19392919061151b565b60405180910390a2600160085f8282546111eb91906114e9565b9091555050505050565b634e487b7160e01b5f52604160045260245ffd5b5f82601f830112611218575f80fd5b813567ffffffffffffffff80821115611233576112336111f5565b604051601f8301601f19908116603f0116810190828211818310171561125b5761125b6111f5565b81604052838152866020858801011115611273575f80fd5b836020870160208301375f602085830101528094505050505092915050565b5f80604083850312156112a3575f80fd5b823567ffffffffffffffff8111156112b9575f80fd5b6112c585828601611209565b95602094909401359450505050565b5f602082840312156112e4575f80fd5b813567ffffffffffffffff8111156112fa575f80fd5b61130684828501611209565b949350505050565b80356001600160a01b0381168114611324575f80fd5b919050565b5f60208284031215611339575f80fd5b6113428261130e565b9392505050565b5f806040838503121561135a575f80fd5b6113638361130e565b946020939093013593505050565b5f8060408385031215611382575f80fd5b61138b8361130e565b9150602083013567ffffffffffffffff8111156113a6575f80fd5b6113b285828601611209565b9150509250929050565b60208082526026908201527f4f6e6c7920746865206f776e65722063616e20706572666f726d20746869732060408201526530b1ba34b7b760d11b606082015260800190565b602080825260119082015270056616c75652063616e6e6f74206265203607c1b604082015260600190565b5f82515f5b8181101561144c5760208186018101518583015201611432565b505f920191825250919050565b602080825260139082015272155cd95c88191bd95cc81b9bdd08195e1a5cdd606a1b604082015260600190565b634e487b7160e01b5f52601160045260245ffd5b818103818111156114ad576114ad611486565b92915050565b5f826114cd57634e487b7160e01b5f52601260045260245ffd5b500490565b80820281158282048414176114ad576114ad611486565b808201808211156114ad576114ad611486565b5f6020828403121561150c575f80fd5b81518015158114611342575f80fd5b6001600160a01b039384168152919092166020820152604081019190915260600190565b5f6020828403121561154f575f80fd5b505191905056fea264697066735822122056e6dcfac410cc42d64a6c46f0cb7da35b57a25b0541f29e805668d9ace5444464736f6c63430008150033",
    "sourcePath": "/Users/rohit/Programs/gridkart/blockchain/contracts/CompanyContract.sol",
    "compiler": {
        "name": "solc",
        "version": "0.8.21+commit.d9974bed"
    },
    "functionHashes": {
        "completeTask(address,string)": "d58b4c45",
        "createReward(string,uint256)": "10437844",
        "createTask(string,uint256)": "04fe2b34",
        "createUser(address)": "cdd87618",
        "fundUser(address,uint256)": "4e23a144",
        "redeemReward(address,string)": "dbb3c335",
        "removeReward(string)": "96489045",
        "removeTask(string)": "0da8073d",
        "removeUser(address)": "98575188",
        "rewards(string)": "a2f8af38",
        "stakeTokens(address,uint256)": "79a83f5a",
        "tasks(string)": "58709cf2",
        "unstakeTokens(address)": "2d1ad8b8"
    },
    "gasEstimates": {
        "creation": {
            "codeDepositCost": "1103200",
            "executionCost": "infinite",
            "totalCost": "infinite"
        },
        "external": {
            "completeTask(address,string)": "infinite",
            "createReward(string,uint256)": "infinite",
            "createTask(string,uint256)": "infinite",
            "createUser(address)": "infinite",
            "fundUser(address,uint256)": "infinite",
            "redeemReward(address,string)": "infinite",
            "removeReward(string)": "infinite",
            "removeTask(string)": "infinite",
            "removeUser(address)": "infinite",
            "rewards(string)": "infinite",
            "stakeTokens(address,uint256)": "infinite",
            "tasks(string)": "infinite",
            "unstakeTokens(address)": "infinite"
        },
        "internal": {
            "emitTransaction(address,address,uint256)": "infinite"
        }
    }
}