{
    "contractName": "TokenContract",
    "abi": [
        {
            "inputs": [
                {
                    "internalType": "string",
                    "name": "name",
                    "type": "string"
                },
                {
                    "internalType": "string",
                    "name": "symbol",
                    "type": "string"
                }
            ],
            "stateMutability": "nonpayable",
            "type": "constructor"
        },
        {
            "anonymous": false,
            "inputs": [
                {
                    "indexed": true,
                    "internalType": "address",
                    "name": "owner",
                    "type": "address"
                },
                {
                    "indexed": true,
                    "internalType": "address",
                    "name": "spender",
                    "type": "address"
                },
                {
                    "indexed": false,
                    "internalType": "uint256",
                    "name": "value",
                    "type": "uint256"
                }
            ],
            "name": "Approval",
            "type": "event"
        },
        {
            "anonymous": false,
            "inputs": [
                {
                    "indexed": true,
                    "internalType": "address",
                    "name": "from",
                    "type": "address"
                },
                {
                    "indexed": true,
                    "internalType": "address",
                    "name": "to",
                    "type": "address"
                },
                {
                    "indexed": false,
                    "internalType": "uint256",
                    "name": "value",
                    "type": "uint256"
                }
            ],
            "name": "Transfer",
            "type": "event"
        },
        {
            "inputs": [
                {
                    "internalType": "address",
                    "name": "owner",
                    "type": "address"
                },
                {
                    "internalType": "address",
                    "name": "spender",
                    "type": "address"
                }
            ],
            "name": "allowance",
            "outputs": [
                {
                    "internalType": "uint256",
                    "name": "",
                    "type": "uint256"
                }
            ],
            "stateMutability": "view",
            "type": "function"
        },
        {
            "inputs": [
                {
                    "internalType": "address",
                    "name": "spender",
                    "type": "address"
                },
                {
                    "internalType": "uint256",
                    "name": "amount",
                    "type": "uint256"
                }
            ],
            "name": "approve",
            "outputs": [
                {
                    "internalType": "bool",
                    "name": "",
                    "type": "bool"
                }
            ],
            "stateMutability": "nonpayable",
            "type": "function"
        },
        {
            "inputs": [
                {
                    "internalType": "address",
                    "name": "account",
                    "type": "address"
                }
            ],
            "name": "balanceOf",
            "outputs": [
                {
                    "internalType": "uint256",
                    "name": "",
                    "type": "uint256"
                }
            ],
            "stateMutability": "view",
            "type": "function"
        },
        {
            "inputs": [],
            "name": "decimals",
            "outputs": [
                {
                    "internalType": "uint8",
                    "name": "",
                    "type": "uint8"
                }
            ],
            "stateMutability": "view",
            "type": "function"
        },
        {
            "inputs": [
                {
                    "internalType": "address",
                    "name": "spender",
                    "type": "address"
                },
                {
                    "internalType": "uint256",
                    "name": "subtractedValue",
                    "type": "uint256"
                }
            ],
            "name": "decreaseAllowance",
            "outputs": [
                {
                    "internalType": "bool",
                    "name": "",
                    "type": "bool"
                }
            ],
            "stateMutability": "nonpayable",
            "type": "function"
        },
        {
            "inputs": [
                {
                    "internalType": "address",
                    "name": "spender",
                    "type": "address"
                },
                {
                    "internalType": "uint256",
                    "name": "addedValue",
                    "type": "uint256"
                }
            ],
            "name": "increaseAllowance",
            "outputs": [
                {
                    "internalType": "bool",
                    "name": "",
                    "type": "bool"
                }
            ],
            "stateMutability": "nonpayable",
            "type": "function"
        },
        {
            "inputs": [
                {
                    "internalType": "address",
                    "name": "account",
                    "type": "address"
                },
                {
                    "internalType": "uint256",
                    "name": "amount",
                    "type": "uint256"
                }
            ],
            "name": "mint",
            "outputs": [],
            "stateMutability": "nonpayable",
            "type": "function"
        },
        {
            "inputs": [],
            "name": "name",
            "outputs": [
                {
                    "internalType": "string",
                    "name": "",
                    "type": "string"
                }
            ],
            "stateMutability": "view",
            "type": "function"
        },
        {
            "inputs": [],
            "name": "symbol",
            "outputs": [
                {
                    "internalType": "string",
                    "name": "",
                    "type": "string"
                }
            ],
            "stateMutability": "view",
            "type": "function"
        },
        {
            "inputs": [],
            "name": "totalSupply",
            "outputs": [
                {
                    "internalType": "uint256",
                    "name": "",
                    "type": "uint256"
                }
            ],
            "stateMutability": "view",
            "type": "function"
        },
        {
            "inputs": [
                {
                    "internalType": "address",
                    "name": "to",
                    "type": "address"
                },
                {
                    "internalType": "uint256",
                    "name": "amount",
                    "type": "uint256"
                }
            ],
            "name": "transfer",
            "outputs": [
                {
                    "internalType": "bool",
                    "name": "",
                    "type": "bool"
                }
            ],
            "stateMutability": "nonpayable",
            "type": "function"
        },
        {
            "inputs": [
                {
                    "internalType": "address",
                    "name": "from",
                    "type": "address"
                },
                {
                    "internalType": "address",
                    "name": "to",
                    "type": "address"
                },
                {
                    "internalType": "uint256",
                    "name": "amount",
                    "type": "uint256"
                }
            ],
            "name": "transferFrom",
            "outputs": [
                {
                    "internalType": "bool",
                    "name": "",
                    "type": "bool"
                }
            ],
            "stateMutability": "nonpayable",
            "type": "function"
        }
    ],
    "bytecode": "608060405234801562000010575f80fd5b5060405162000c1038038062000c1083398101604081905262000033916200012e565b8181600362000043838262000220565b50600462000052828262000220565b5050600580546001600160a01b0319163317905550620002e8915050565b634e487b7160e01b5f52604160045260245ffd5b5f82601f83011262000094575f80fd5b81516001600160401b0380821115620000b157620000b162000070565b604051601f8301601f19908116603f01168101908282118183101715620000dc57620000dc62000070565b81604052838152602092508683858801011115620000f8575f80fd5b5f91505b838210156200011b5785820183015181830184015290820190620000fc565b5f93810190920192909252949350505050565b5f806040838503121562000140575f80fd5b82516001600160401b038082111562000157575f80fd5b620001658683870162000084565b935060208501519150808211156200017b575f80fd5b506200018a8582860162000084565b9150509250929050565b600181811c90821680620001a957607f821691505b602082108103620001c857634e487b7160e01b5f52602260045260245ffd5b50919050565b601f8211156200021b575f81815260208120601f850160051c81016020861015620001f65750805b601f850160051c820191505b81811015620002175782815560010162000202565b5050505b505050565b81516001600160401b038111156200023c576200023c62000070565b62000254816200024d845462000194565b84620001ce565b602080601f8311600181146200028a575f8415620002725750858301515b5f19600386901b1c1916600185901b17855562000217565b5f85815260208120601f198616915b82811015620002ba5788860151825594840194600190910190840162000299565b5085821015620002d857878501515f19600388901b60f8161c191681555b5050505050600190811b01905550565b61091a80620002f65f395ff3fe608060405234801561000f575f80fd5b50600436106100b1575f3560e01c806340c10f191161006e57806340c10f191461013d57806370a082311461015257806395d89b411461017a578063a457c2d714610182578063a9059cbb14610195578063dd62ed3e146101a8575f80fd5b806306fdde03146100b5578063095ea7b3146100d357806318160ddd146100f657806323b872dd14610108578063313ce5671461011b578063395093511461012a575b5f80fd5b6100bd6101bb565b6040516100ca9190610775565b60405180910390f35b6100e66100e13660046107db565b61024b565b60405190151581526020016100ca565b6002545b6040519081526020016100ca565b6100e6610116366004610803565b610264565b604051601281526020016100ca565b6100e66101383660046107db565b610287565b61015061014b3660046107db565b6102a8565b005b6100fa61016036600461083c565b6001600160a01b03165f9081526020819052604090205490565b6100bd6102b6565b6100e66101903660046107db565b6102c5565b6100e66101a33660046107db565b610344565b6100fa6101b636600461085c565b610351565b6060600380546101ca9061088d565b80601f01602080910402602001604051908101604052809291908181526020018280546101f69061088d565b80156102415780601f1061021857610100808354040283529160200191610241565b820191905f5260205f20905b81548152906001019060200180831161022457829003601f168201915b5050505050905090565b5f3361025881858561037b565b60019150505b92915050565b5f3361027185828561049e565b61027c858585610516565b506001949350505050565b5f336102588185856102998383610351565b6102a391906108c5565b61037b565b6102b282826106b8565b5050565b6060600480546101ca9061088d565b5f33816102d28286610351565b9050838110156103375760405162461bcd60e51b815260206004820152602560248201527f45524332303a2064656372656173656420616c6c6f77616e63652062656c6f77604482015264207a65726f60d81b60648201526084015b60405180910390fd5b61027c828686840361037b565b5f33610258818585610516565b6001600160a01b039182165f90815260016020908152604080832093909416825291909152205490565b6001600160a01b0383166103dd5760405162461bcd60e51b8152602060048201526024808201527f45524332303a20617070726f76652066726f6d20746865207a65726f206164646044820152637265737360e01b606482015260840161032e565b6001600160a01b03821661043e5760405162461bcd60e51b815260206004820152602260248201527f45524332303a20617070726f766520746f20746865207a65726f206164647265604482015261737360f01b606482015260840161032e565b6001600160a01b038381165f8181526001602090815260408083209487168084529482529182902085905590518481527f8c5be1e5ebec7d5bd14f71427d1e84f3dd0314c0f7b2291e5b200ac8c7c3b925910160405180910390a3505050565b5f6104a98484610351565b90505f19811461051057818110156105035760405162461bcd60e51b815260206004820152601d60248201527f45524332303a20696e73756666696369656e7420616c6c6f77616e6365000000604482015260640161032e565b610510848484840361037b565b50505050565b6001600160a01b03831661057a5760405162461bcd60e51b815260206004820152602560248201527f45524332303a207472616e736665722066726f6d20746865207a65726f206164604482015264647265737360d81b606482015260840161032e565b6001600160a01b0382166105dc5760405162461bcd60e51b815260206004820152602360248201527f45524332303a207472616e7366657220746f20746865207a65726f206164647260448201526265737360e81b606482015260840161032e565b6001600160a01b0383165f90815260208190526040902054818110156106535760405162461bcd60e51b815260206004820152602660248201527f45524332303a207472616e7366657220616d6f756e7420657863656564732062604482015265616c616e636560d01b606482015260840161032e565b6001600160a01b038481165f81815260208181526040808320878703905593871680835291849020805487019055925185815290927fddf252ad1be2c89b69c2b068fc378daa952ba7f163c4a11628f55a4df523b3ef910160405180910390a3610510565b6001600160a01b03821661070e5760405162461bcd60e51b815260206004820152601f60248201527f45524332303a206d696e7420746f20746865207a65726f206164647265737300604482015260640161032e565b8060025f82825461071f91906108c5565b90915550506001600160a01b0382165f81815260208181526040808320805486019055518481527fddf252ad1be2c89b69c2b068fc378daa952ba7f163c4a11628f55a4df523b3ef910160405180910390a35050565b5f6020808352835180828501525f5b818110156107a057858101830151858201604001528201610784565b505f604082860101526040601f19601f8301168501019250505092915050565b80356001600160a01b03811681146107d6575f80fd5b919050565b5f80604083850312156107ec575f80fd5b6107f5836107c0565b946020939093013593505050565b5f805f60608486031215610815575f80fd5b61081e846107c0565b925061082c602085016107c0565b9150604084013590509250925092565b5f6020828403121561084c575f80fd5b610855826107c0565b9392505050565b5f806040838503121561086d575f80fd5b610876836107c0565b9150610884602084016107c0565b90509250929050565b600181811c908216806108a157607f821691505b6020821081036108bf57634e487b7160e01b5f52602260045260245ffd5b50919050565b8082018082111561025e57634e487b7160e01b5f52601160045260245ffdfea2646970667358221220ec25d54cc67c427c6fe4f4e4fae8995563a9fd3349059a0049a492f59e5951d264736f6c63430008150033",
    "sourcePath": "/Users/rohit/Programs/gridkart/blockchain/contracts/TokenContract.sol",
    "compiler": {
        "name": "solc",
        "version": "0.8.21+commit.d9974bed"
    },
    "functionHashes": {
        "allowance(address,address)": "dd62ed3e",
        "approve(address,uint256)": "095ea7b3",
        "balanceOf(address)": "70a08231",
        "decimals()": "313ce567",
        "decreaseAllowance(address,uint256)": "a457c2d7",
        "increaseAllowance(address,uint256)": "39509351",
        "mint(address,uint256)": "40c10f19",
        "name()": "06fdde03",
        "symbol()": "95d89b41",
        "totalSupply()": "18160ddd",
        "transfer(address,uint256)": "a9059cbb",
        "transferFrom(address,address,uint256)": "23b872dd"
    },
    "gasEstimates": {
        "creation": {
            "codeDepositCost": "466000",
            "executionCost": "infinite",
            "totalCost": "infinite"
        },
        "external": {
            "allowance(address,address)": "infinite",
            "approve(address,uint256)": "24624",
            "balanceOf(address)": "2559",
            "decimals()": "265",
            "decreaseAllowance(address,uint256)": "27011",
            "increaseAllowance(address,uint256)": "infinite",
            "mint(address,uint256)": "50801",
            "name()": "infinite",
            "symbol()": "infinite",
            "totalSupply()": "2325",
            "transfer(address,uint256)": "51133",
            "transferFrom(address,address,uint256)": "infinite"
        }
    }
}